:100000000080001071010000E9010000F101000012
:10001000F90100000102000009020000B274FFEFC4
:1000200000000000000000000000000011020000BD
:100030001902000000000000210200002902000057
:1000400031020000310200003102000031020000E4
:1000500031020000310200003102000031020000D4
:1000600031020000E90D0000310200003102000001
:1000700031020000310200003102000031020000B4
:1000800031020000310200003102000031020000A4
:100090003102000031020000310200003102000094
:1000A0003102000031020000310200003102000084
:1000B0003102000031020000310200003102000074
:1000C000310200003102000031020000041700007C
:1000D00000000010840000000417000000C007208A
:1000E00000000000840000102400000000C0072071
:1000F0000000000080B489B000AFF860B9607A6099
:10010000BB68FB61FB68BB6100237B610AE0FB69A4
:100110001A1DFA61BA69111DB96112681A607B690A
:1001200004337B617A697B689A42F0D32437BD46F9
:100130005DF8047B704700BF80B485B000AF786085
:1001400039607B68FB600023BB6007E0FB681A1D19
:10015000FA6000221A60BB680433BB60BA683B686F
:100160009A42F3D31437BD465DF8047B704700BF55
:1001700080B584B000AF194BFB6013E0FB681A1D1B
:10018000FA601B68BB60FB681A1DFA601B687B6025
:10019000FB681A1DFA601B683B60B86879683A68AA
:1001A000FFF7A8FFFB680E4A9342E7D30DE0FB6818
:1001B0001A1DFA601B687B60FB681A1DFA601B68D9
:1001C0003B6078683968FFF7B7FFFB68054A9342E0
:1001D000EDD300F053FE01F0DFF8FEE7CC000000A5
:1001E000E4000000F400000080B400AFFEE700BFB0
:1001F00080B400AFFEE700BF80B400AFFEE700BFF1
:1002000080B400AFFEE700BF80B400AFFEE700BFE0
:1002100080B400AFFEE700BF80B400AFFEE700BFD0
:1002200080B400AFFEE700BF80B400AFFEE700BFC0
:1002300080B400AFFEE700BFFFFFFFFFFFFFFFFF3F
:10024000FFFFFFFFFFFFFFFFFFFFFFFFFFFFFFFFBE
:10025000FFFFFFFFFFFFFFFFFFFFFFFFFFFFFFFFAE
:10026000FFFFFFFFFFFFFFFFFFFFFFFFFFFFFFFF9E
:10027000FFFFFFFFFFFFFFFFFFFFFFFFFFFFFFFF8E
:10028000FFFFFFFFFFFFFFFFFFFFFFFFFFFFFFFF7E
:10029000FFFFFFFFFFFFFFFFFFFFFFFFFFFFFFFF6E
:1002A000FFFFFFFFFFFFFFFFFFFFFFFFFFFFFFFF5E
:1002B000FFFFFFFFFFFFFFFFFFFFFFFFFFFFFFFF4E
:1002C000FFFFFFFFFFFFFFFFFFFFFFFFFFFFFFFF3E
:1002D000FFFFFFFFFFFFFFFFFFFFFFFFFFFFFFFF2E
:1002E000FFFFFFFFFFFFFFFFFFFFFFFFFFFFFFFF1E
:1002F000FFFFFFFFFFFFFFFFFFFFFFFFFFFFFFFF0E
:1003000080B483B000AF0346FB71084997F907300A
:100310005B09FA7902F01F02012000FA02F241F8AB
:1003200023200C37BD465DF8047B704700E100E0F8
:1003300080B483B000AF7860084611461A46034681
:10034000FB700B46BB7013467B707B78002B0FD085
:10035000FB785B017A681344FA78520179680A44A1
:100360009169BA78012000FA02F20A439A610EE01C
:10037000FB785B017A681344FA78520179680A4481
:10038000D169BA78012000FA02F20A43DA610C3727
:10039000BD465DF8047B704780B584B000AFF8605F
:1003A000B96011461A460B46FB711346BB71BB6818
:1003B000D9B2FA79BB79F868FFF7BAFF1037BD46B2
:1003C00080BD00BF80B483B000AF78600B46FB7087
:1003D0001346BB70FB785B017A6813445A69BB789B
:1003E00022FA03F303F00103002B14BF01230023BF
:1003F000DBB218460C37BD465DF8047B704700BF82
:1004000080B584B000AFF860B9601346FB71BB687B
:10041000DAB2FB79F86811461A46FFF7D3FF0346B4
:1004200018461037BD4680BD80B483B000AF7860F9
:100430000B46FB701346BB70FB785B017A68134474
:10044000FA78520179680A441168BA78012000FAF2
:1004500002F20A431A600C37BD465DF8047B704710
:1004600080B483B000AF78600B46FB701346BB705E
:10047000FB785B017A681344FA78520179680A4480
:100480001168BA78012000FA02F2D2430A401A60D9
:100490000C37BD465DF8047B704700BF80B582B065
:1004A00000AF7860084611461A460346FB700B46BB
:1004B000BB7013467B707B78002B07D0FA78BB7833
:1004C000786811461A46FFF7AFFF06E0FA78BB7866
:1004D000786811461A46FFF7C3FF0837BD4680BD4E
:1004E00080B582B000AF7860084611461A460346D0
:1004F000FB700B46BB7013467B70F978BA787B783B
:100500007868FFF7CBFF0837BD4680BD80B483B065
:1005100000AF78600B46FB707B681B6897F903207F
:10052000032A05DC97F90320012101FA02F205E014
:1005300097F903200432012101FA02F21340002B43
:1005400014BF01230023DBB218460C37BD465DF80B
:10055000047B704780B483B000AF78600B46FB70BB
:1005600097F90330032B06DC97F90330012202FAD6
:1005700003F31A4606E097F903300433012202FA26
:1005800003F31A467B681A600C37BD465DF8047B9E
:10059000704700BF80B483B000AF78607B685B6851
:1005A00043F001027B685A607B685B6843F0080295
:1005B0007B685A600C37BD465DF8047B704700BF0E
:1005C00080B483B000AF786039607B683A68DA60E5
:1005D0000C37BD465DF8047B704700BF80B485B022
:1005E00000AFF8600B467A60FB7297F90B30062B70
:1005F0002CD801A252F823F0150600001D060000B9
:10060000250600002D060000350600003D0600000E
:1006100045060000FB687A689A6118E0FB687A6812
:10062000DA6114E0FB687A681A6210E0FB687A68A5
:100630005A620CE0FB687A681A6408E0FB687A6822
:100640005A6404E0FB687A689A6400E000BF1437DB
:10065000BD465DF8047B704780B483B000AF78601E
:100660000B46FB707B685B69FA7802F00702510069
:10067000FA7802F007020A44012101FA02F21A4351
:100680007B685A610C37BD465DF8047B704700BF3C
:1006900080B483B000AF78600B46FB707B6859690B
:1006A00097F9032013465B0013440133012202FA39
:1006B00003F341EA03027B685A610C37BD465DF8DB
:1006C000047B704780B483B000AF78600B46FB704A
:1006D0007B68596997F9032013465B001344013383
:1006E000012202FA03F3DB4301EA03027B685A6149
:1006F0000C37BD465DF8047B704700BF80B483B003
:1007000000AF78600B46FB707B68596997F903204E
:1007100013465B0013440233012202FA03F3DB4366
:1007200001EA03027B685A610C37BD465DF8047B21
:10073000704700BF80B500AF1B480021FFF740FFA6
:10074000194800214FF4FA72FFF748FF16480021BC
:10075000FFF782FF14480021FFF79AFF124800219B
:10076000FFF7CCFF104805210022002300F07CFC9D
:100770000D4805210522FFF731FF0B480521FFF742
:100780006BFF09480521FFF79DFF07480521FFF78B
:10079000B5FF054800F04CFC0348FFF7FBFE0920BD
:1007A000FFF7AEFD80BD00BF0080014080B500AF07
:1007B0002D4800211B220123FFF792FE2A48012128
:1007C0001A220123FFF78CFE274800211C22012357
:1007D000FFF786FE2448012117220123FFF780FE40
:1007E0002148012112220123FFF77AFE1E48012130
:1007F00014220123FFF774FE1B4801211A22002353
:10080000FFF7CAFD184800211C220123FFF7C4FD91
:100810001548012117220023FFF7BEFD12480121D0
:1008200012220123FFF7B8FD0F48012114220023F3
:10083000FFF7B2FD0C4800211B220123FFF7ACFD9E
:100840000948012113220023FFF74AFE064801212F
:1008500016220023FFF744FE03480121192200233A
:10086000FFF73EFE80BD00BF00C0092080B582B00A
:1008700000AF0023FB710023BB7100237B7140F2AA
:10088000FF137B8000F0EEF8FFF790FFFFF752FFB9
:10089000424800211222FFF7B3FD034683F0010313
:1008A000DBB2002B18D03D4800210122FFF7A8FD44
:1008B000034683F00103DBB2002B0DD000F0D2F829
:1008C0000023FB710023BB7100237B7140F2FF13F7
:1008D0007B80334B334A1A60304800211222FFF7E5
:1008E0008FFD034683F00103DBB2002B18D02C4BA5
:1008F0001B68002B14D1BB79002B04D100F0F4F855
:100900000123FB7109E0284B1B88322B05D9264BAC
:100910001B88053B9AB2244B1A80214B214A1A604E
:100920001E4800210122FFF76BFD034683F00103FF
:10093000DBB2002B14D01A4B1B68002B10D11A4BC2
:100940001B88B3F5E17F08D2BB79012B05D1164B8B
:100950001B8805339AB2144B1A80114B114A1A6046
:100960000F4B1B68002B04D00D4B1B68013B0C4A3E
:1009700013607B79002B0ED10C4B1B681A460C4B75
:100980001B689A4209D8FB79002B06D000F034F995
:100990000123BB717CE700F00DF879E700C0092066
:1009A00000000010A08601009C000010A0000010B4
:1009B0008400001080B500AF254B1A68254B1B68DA
:1009C000DBB2254811461A46FFF71AFD03461A46C0
:1009D000224B1A701E4B5A681E4B5B68DBB21E48D6
:1009E00011461A46FFF70CFD03461A461B4B5A7078
:1009F000174B9A68174B9B68DBB2174811461A468B
:100A0000FFF7FEFC03461A46144B9A70144B1B78F2
:100A1000DAB2124B1B78DBB29A4202D000F0ECF84B
:100A200014E00F4B5B78DAB20C4B5B78DBB29A4286
:100A300002D000F0E1F809E0094B9B78DAB2074BED
:100A40009B78DBB29A4201D000F0D6F880BD00BF9F
:100A5000580000106400001000C009208C00001035
:100A60009000001080B500AF1A4B5B681A4A136003
:100A7000184BDB68184600F0EBFD03469AB2174BA3
:100A80001A80164B1A88164B1A80164801211A2212
:100A90000023FFF781FC134800211C220123FFF7EC
:100AA0007BFC1048012117220023FFF775FC0D483D
:100AB000012112220123FFF76FFC0A4801211422B1
:100AC0000023FFF769FC074800211B220123FFF7E1
:100AD00063FC80BD70000010A00000109C0000109E
:100AE000A400001000C0092090B585B000AF01231C
:100AF000FB603C4B00221A6000F07EF809E000BF6A
:100B0000394B1B681A46394B1B689A42F8D800F0DB
:100B100073F8344B1B68022BF1DD354B1A69344BEB
:100B2000DB681046194600F0A9FC03461C46304B12
:100B30001B68184600F0A0FD03462046194600F049
:100B40003DFC0346184600F069FD0346BB60284B98
:100B50005A68274B9B68D21A254B1B6892FBF3F30C
:100B60007B60204B00221A600023FB602DE000BF59
:100B70001D4B1B681A461D4B1B689A42F8D800F0A3
:100B80003BF81B4BDC68BB68FA6802FB03F31846B2
:100B900000F082FD03462046194600F0E5FC0346BE
:100BA000184600F055FD03469AB2124B1A80104BBE
:100BB0005B6819467B68FA6802FB03F3CB1A1A4696
:100BC000094B1A60FB680133FB60094B9A68064BBE
:100BD0001B689A42CBDB074B4B221A801437BD4669
:100BE00090BD00BF98000010A0000010840000100D
:100BF000700000109C00001080B500AF6B4B1A888D
:100C00006B4B1B889A420DD0684B1B8869480521A5
:100C10001A46FFF7E3FC674800F00AFA634B1A88AC
:100C2000634B1A80644B1B68042B70D801A252F8E6
:100C300023F000BF490C0000770C0000950C000069
:100C4000C30C0000E10C00005C4B9A685C4B9B6895
:100C5000DBB25C4811461A460123FFF79DFB574B58
:100C60001A68574B1B68DBB2564811461A460023D8
:100C7000FFF792FB59E0544B5A68544B5B68DBB268
:100C8000504811461A460023FFF786FB504B0222BC
:100C90001A604AE0494B1A68494B1B68DBB2494865
:100CA00011461A460123FFF777FB444B5A68444B21
:100CB0005B68DBB2434811461A460023FFF76CFB22
:100CC00033E0414B9A68414B9B68DBB23D4811468B
:100CD0001A460023FFF760FB3D4B00221A6024E018
:100CE000364B5A68364B5B68DBB2364811461A46BB
:100CF0000123FFF751FB314B9A68314B9B68DBB204
:100D0000304811461A460023FFF746FB0DE02E4BF4
:100D10001A682E4B1B68DBB22A4811461A4600237C
:100D2000FFF73AFB2A4B01221A60234B1B68042B66
:100D300008DD214B00221A60264B1B680133254A2F
:100D4000136004E01C4B1B6801331B4A1360224BE9
:100D500000221A60214B1A68214B1B68DBB219482C
:100D600011461A46FFF74CFB03461A461D4B1A70F4
:100D70001A4B5A681A4B5B68DBB2124811461A4686
:100D8000FFF73EFB03461A46164B5A70134B9A6800
:100D9000134B9B68DBB20B4811461A46FFF730FB3A
:100DA00003461A460F4B9A7080BD00BF9C0000108E
:100DB000A4000010008001409400001028000010E2
:100DC0004000001000C009200400001010000010B6
:100DD00088000010980000108400001058000010D7
:100DE000640000109000001080B500AF1D48002185
:100DF000FFF78CFB0346002B18D01B4B1B680133FD
:100E0000194A136017480021FFF7A4FB174B1B6812
:100E1000174A52F82310154B1B68164A52F8233014
:100E2000DBB215481A460123FFF7B6FA0D48052133
:100E3000FFF76CFB0346002B13D00A480521FFF790
:100E400089FB0A4B1B680A4A52F82310074B1B68A0
:100E5000084A52F82330DBB207481A460023FFF74E
:100E60009BFA80BD008001408400001088000010C3
:100E7000040000101000001000C0092080B582B0EE
:100E800000AF054B7B60054A7B681A6000F034F8C0
:100E90000837BD4680BD00BF08ED00E0000000003F
:100EA00080B485B000AF0346FB71084B1B68C3F3E9
:100EB0000B03FB60054AFB791B031946FB680B43D8
:100EC00013601437BD465DF8047B704700C00F40C7
:100ED00080B500AF02480349172200F079F880BDC1
:100EE00000C00240A816000080B500AF00F072F903
:100EF0000420FFF7D5FF80BD80B500AFFFF7E8FF06
:100F0000FFF7F2FF80BD00BF90B587B002AFF86079
:100F10007B600B46FB721346BB727B689C087B6848
:100F2000DBB203F00303DBB2F97ABA7A0093F86814
:100F3000234600F003F81437BD4690BD80B487B057
:100F400000AFF8607B600B46FB721346BB72BB7A46
:100F500003F00F03DBB25B00FB75FB7A5B00DAB2D8
:100F6000BB7A1B09DBB21344BB75BA7DFB6853F82F
:100F70002220FB7D032101FA03F3DB4313403B6195
:100F8000BA7D97F82010FB7D01FA03F319463B69FF
:100F90001943FB6843F82210BA7DFB68103253F8FE
:100FA0002220FB7D032101FA03F3DB4313403B6165
:100FB000BA7DFB7D796899403B691943FB68103223
:100FC00043F822101C37BD465DF8047B704700BF14
:100FD00090B587B000AFF860B9607A6000237B619C
:100FE0001FE07B699B00BA6813441B78C3F30203BC
:100FF000DBB219467B699B00BA6813441B78C3F3C4
:10100000C403DBB21C467B699B00BA6813441B68AF
:10101000C3F31723F8682246FFF776FF7B69013395
:101020007B617A697B689A42DBD31C37BD4690BDF1
:1010300080B485B000AF78607B685B68FB607B68DC
:1010400000225A607B6801229A607B685B6843F0EB
:1010500008027B685A607B68FA685A601437BD469C
:101060005DF8047B704700BF80B483B000AF786048
:10107000084611461A460346FB700B46BB701346E2
:101080007B70FB78002B2FD07B78002B0AD07B68FD
:10109000DB6CFA780832012101FA02F21A437B680C
:1010A000DA640AE07B68DB6CFA780832012101FA25
:1010B00002F2D2431A407B68DA64BB78012B09D173
:1010C0007B68DB6CFA78012101FA02F21A437B6833
:1010D000DA6409E07B68DB6CFA78012101FA02F23C
:1010E000D2431A407B68DA640C37BD465DF8047B56
:1010F000704700BF80B400AF074BD3F8883003F0CF
:101100008073002B14BF01230023DBB21846BD46B9
:101110005DF8047B704700BF00C00F4080B400AF93
:10112000074BD3F8883003F08063002B14BF0123F2
:101130000023DBB21846BD465DF8047B704700BF54
:1011400000C00F4080B400AF074BD3F8883003F0E5
:101150000073002B14BF01230023DBB21846BD46E9
:101160005DF8047B704700BF00C00F4080B400AF43
:10117000054A054BD3F8A03143F02003C2F8A03153
:10118000BD465DF8047B704700C00F4080B400AFDF
:10119000074BD3F8A03103F04003002B14BF012309
:1011A0000023DBB21846BD465DF8047B704700BFE4
:1011B00000C00F4080B483B000AF0346FB71044A07
:1011C000FB79C2F80C310C37BD465DF8047B7047E3
:1011D00000C00F4080B500AFFFF7B4FF0346002BFF
:1011E00003D00020022100F079F8FFF783FF0346C7
:1011F000002B03D00020012100F070F8FFF7C6FF9C
:10120000034683F00103DBB2002B01D0FFF7AEFFF2
:1012100000BFFFF7BBFF034683F00103DBB2002BE7
:10122000F7D1002000F0A8F80120FFF7C3FF00204D
:101230000F21002200F074F80020012100F02CF8AA
:10124000032000F099F800BFFFF768FF034683F022
:101250000103DBB2002BF7D10020022100F01CF8C3
:1012600080BD00BF80B483B000AF0346FB71094A64
:10127000FB795B0113448833AA225A60054AFB7943
:101280005B011344883355225A600C37BD465DF824
:10129000047B704700C00F4080B584B000AF0346A8
:1012A0003960FB710C4AFB7904335B0113441B6802
:1012B000FB60FA683B681343FB60074AFB79043321
:1012C0005B011344FA681A60FB791846FFF7CAFFFE
:1012D0001037BD4680BD00BF00C00F4080B584B050
:1012E00000AF03463960FB710C4AFB7904335B01A4
:1012F00013441B68FB603B68DB43FA681340FB60E8
:10130000064AFB7904335B011344FA681A60FB79DF
:101310001846FFF7A7FF1037BD4680BD00C00F403D
:1013200080B586B000AF0346B9607A60FB73FB7B83
:10133000002B05D17B681A04BB6813437B6104E072
:101340007B685A01BB6813437B610A4AFB7B043309
:101350005B0113447A695A60064AFB7B04335B01E4
:10136000134401221A60FB7B1846FFF77BFF1837F6
:10137000BD4680BD00C00F4080B483B000AF786030
:10138000044A7B68C2F804310C37BD465DF8047B23
:10139000704700BF00C00F40FFF768BAB0FA80F393
:1013A0009840C3F11F0300F1800201EBC35101EB30
:1013B0002220130608BF20F001007047C0F3C75376
:1013C00070B4FBB1FF2B1DD0C1F3C755D5B1FF2DB4
:1013D00018D00C02020242F0004244F00044A24243
:1013E000A3EB050332BF7D337E335208FD2B81EA28
:1013F000000124D9002B01F000401EDB70BC40F03E
:10140000FF4070474300B3F17F4F15D84C00B4F153
:101410007F4F11D840EA0102520012F07F4F0BD0EB
:10142000414013F07F4F01F0004006D0B4F17F4FF0
:10143000E4D1B3F17F4F00D10F4870BC7047240A4C
:10144000B2FBF4F604FB16221202B2FBF4F504FB25
:1014500015221202B2FBF4F0C90F04FB102206EBB6
:10146000C131DB0505EB012503EB0525A4EB4202A9
:10147000284400EBD270E0E70000C07F90EA010250
:10148000034666D4884230B425D3DA0DD0B2FF28A3
:10149000A2EBD15529D085422DD0090241F000415F
:1014A0001B0243F0004321FA05F01B1A2AD458000E
:1014B000002839DB23D030BCB0FA80F1931E5B1AD0
:1014C000DB05D20593EA020F5ABF884003EB1020D8
:1014D00002F00040704702F1004253405140DA0DE3
:1014E000D0B2FF28A2EBD155D5D15A0200D11DB9F7
:1014F00030BC1C48704715B130BC184670470020FE
:1015000030BC704703F100408030D20502EB10235D
:101510000206F1D1C5F1200511FA05F20CBF23F046
:10152000010303F1FF33E7E78030D40504EB202308
:10153000000612D102F0FE02C5F12005A9400CBF41
:1015400023F0010303F1FF33002AD5D103F0004358
:10155000D2E701F1004100F007B812F0FE02EBD033
:10156000CAE700BF0000C07F90EA010203464ED4E4
:10157000884238BF53404FEAD35038BF5140C2B2BF
:10158000FF2A37D030B4A0EBD15494421BD00902CB
:1015900041F000411B0243F0004321FA04F2D3184A
:1015A00016D203F100428032C00500EB122312066E
:1015B00006D1C4F1200411FA04F201D123F0010391
:1015C000184630BC7047002CFAD103F00043F7E70F
:1015D000421C03F58075D00500EB5523ED050ED1B7
:1015E000C4F12004A140D2B201D123F00103FF2AAB
:1015F000E6D1E6E75A020CBF184607487047D2B258
:10160000FF2ADDD1C4F12004A140EED0D9E701F1D9
:101610000041FFF733BF00BF0000C07FC20D0002D2
:1016200040F00043C2F19E019D2A23FA01F00BD93C
:10163000D1B29D2909D9FF2902D1B3F1004F03D1BD
:10164000120A02F10040013870474042704700BF63
:101650000202C30D42F00040D3F19E0201D4D040FB
:101660007047FE2B04D9B0F1004F01D00020704725
:101670001B0A581E704700BF10F0004104D04042C2
:1016800001F18041FFF78ABE08B9002070474FF092
:101690008041FFF783BE00BF18B14FF08041FFF7D4
:1016A0007DBE0020704700BF000A0000080A00004D
:1016B000200A0000280A0000B0080000B809000055
:1016C000D00A0000010900000909000021090000FA
:1016D000410900004909000051090000710900009A
:1016E000790900008109000089090000D90900007A
:1016F0001A08000078080000220800008008000096
:1017000088080000A0860100010000000100000020
:10171000010000001A000000170000001400000083
:1017200000000000000000000000000000000000B9
:1017300000000000010000000000000000000000A8
:10174000000000001B0000001C0000001200000050
:101750000000000000000000000000000100000088
:10176000010000000100000013000000160000004E
:101770001900000096000000680100003C00000015
:0817800000002041000020439D
:00000001FF
